{
  "txid": "2484fb7360780ea223fdb3bed0895838cd31c62f4bf7ba0bc4b00e8805a614bf",
  "hash": "2484fb7360780ea223fdb3bed0895838cd31c62f4bf7ba0bc4b00e8805a614bf",
  "version": 1,
  "size": 235,
  "vsize": 235,
  "locktime": 0,
  "vin": [
    {
      "txid": "1b4d67d15772bbf7a08ab3d4ff9eb1e9266ab3f8adb84daf34a95ec86a2d11cf",
      "vout": 0,
      "scriptSig": {
        "asm": "3045022100e9c7eaf5f79c03a63df5b7b621f4115523b3c0b28ec3771084db091a6f198ba602205678161b5e39c27eb8ed042b24012eff958333dae8bf4877ef6fd6a09ae6f139[ALL] 03e400af94ff8e090c0ed96975042bec291d05238ce6860e0fb39c9b7af0c6fdc0",
        "hex": "483045022100e9c7eaf5f79c03a63df5b7b621f4115523b3c0b28ec3771084db091a6f198ba602205678161b5e39c27eb8ed042b24012eff958333dae8bf4877ef6fd6a09ae6f139012103e400af94ff8e090c0ed96975042bec291d05238ce6860e0fb39c9b7af0c6fdc0"
      },
      "sequence": 4294967295
    }
  ],
  "vout": [
    {
      "value": 0.99700000,
      "n": 0,
      "scriptPubKey": {
        "asm": "OP_DUP OP_HASH160 e21d94f4167267b38b019021227efb1980204981 OP_EQUALVERIFY OP_CHECKSIG",
        "hex": "76a914e21d94f4167267b38b019021227efb198020498188ac",
        "reqSigs": 1,
        "type": "pubkeyhash",
        "addresses": [
          "n28YSnowHzLwbkCekMZq9iGdcSEjTNaRKA"
        ]
      }
    },
    {
      "value": 0.00000000,
      "n": 1,
      "scriptPubKey": {
        "asm": "OP_RETURN 2e5e4c79c8a9abae9665215fec51d123c944ce144ce5e15ccacd4404b3dcb0fb",
        "hex": "6a202e5e4c79c8a9abae9665215fec51d123c944ce144ce5e15ccacd4404b3dcb0fb",
        "type": "nulldata"
      }
    }
  ],
  "hex": "0100000001cf112d6ac85ea934af4db8adf8b36a26e9b19effd4b38aa0f7bb7257d1674d1b000000006b483045022100e9c7eaf5f79c03a63df5b7b621f4115523b3c0b28ec3771084db091a6f198ba602205678161b5e39c27eb8ed042b24012eff958333dae8bf4877ef6fd6a09ae6f139012103e400af94ff8e090c0ed96975042bec291d05238ce6860e0fb39c9b7af0c6fdc0ffffffff02204df105000000001976a914e21d94f4167267b38b019021227efb198020498188ac0000000000000000226a202e5e4c79c8a9abae9665215fec51d123c944ce144ce5e15ccacd4404b3dcb0fb00000000",
  "blockhash": "4bf6537734f0097a1f1fc51ca8a54cf3691cd9d4b50d299a222b6dc3549d33c9",
  "confirmations": 1,
  "time": 1522222666,
  "blocktime": 1522222666
}
